{
  "contractName": "BasicTokensale",
  "abi": [
    {
      "constant": true,
      "inputs": [],
      "name": "tokenSeller",
      "outputs": [
        {
          "name": "",
          "type": "address"
        }
      ],
      "payable": false,
      "stateMutability": "view",
      "type": "function"
    },
    {
      "constant": true,
      "inputs": [],
      "name": "saleStartTime",
      "outputs": [
        {
          "name": "",
          "type": "uint256"
        }
      ],
      "payable": false,
      "stateMutability": "view",
      "type": "function"
    },
    {
      "constant": true,
      "inputs": [],
      "name": "platAddr",
      "outputs": [
        {
          "name": "",
          "type": "address"
        }
      ],
      "payable": false,
      "stateMutability": "view",
      "type": "function"
    },
    {
      "constant": true,
      "inputs": [],
      "name": "platFeePercent",
      "outputs": [
        {
          "name": "",
          "type": "uint256"
        }
      ],
      "payable": false,
      "stateMutability": "view",
      "type": "function"
    },
    {
      "constant": false,
      "inputs": [
        {
          "name": "newAdmin",
          "type": "address"
        }
      ],
      "name": "changeAdmin",
      "outputs": [
        {
          "name": "",
          "type": "bool"
        }
      ],
      "payable": false,
      "stateMutability": "nonpayable",
      "type": "function"
    },
    {
      "constant": true,
      "inputs": [],
      "name": "saleEndTime",
      "outputs": [
        {
          "name": "",
          "type": "uint256"
        }
      ],
      "payable": false,
      "stateMutability": "view",
      "type": "function"
    },
    {
      "constant": true,
      "inputs": [],
      "name": "salePrice",
      "outputs": [
        {
          "name": "",
          "type": "uint256"
        }
      ],
      "payable": false,
      "stateMutability": "view",
      "type": "function"
    },
    {
      "constant": true,
      "inputs": [],
      "name": "admin",
      "outputs": [
        {
          "name": "",
          "type": "address"
        }
      ],
      "payable": false,
      "stateMutability": "view",
      "type": "function"
    },
    {
      "constant": true,
      "inputs": [],
      "name": "token",
      "outputs": [
        {
          "name": "",
          "type": "address"
        }
      ],
      "payable": false,
      "stateMutability": "view",
      "type": "function"
    },
    {
      "inputs": [
        {
          "name": "_token",
          "type": "address"
        },
        {
          "name": "_tokenSeller",
          "type": "address"
        },
        {
          "name": "_saleStartTime",
          "type": "uint256"
        },
        {
          "name": "_saleEndTime",
          "type": "uint256"
        },
        {
          "name": "_salePrice",
          "type": "uint256"
        },
        {
          "name": "_initialAdmin",
          "type": "address"
        }
      ],
      "payable": false,
      "stateMutability": "nonpayable",
      "type": "constructor"
    },
    {
      "payable": true,
      "stateMutability": "payable",
      "type": "fallback"
    },
    {
      "anonymous": false,
      "inputs": [
        {
          "indexed": true,
          "name": "buyer",
          "type": "address"
        },
        {
          "indexed": false,
          "name": "tokenAmount",
          "type": "uint256"
        },
        {
          "indexed": false,
          "name": "value",
          "type": "uint256"
        }
      ],
      "name": "TokenSold",
      "type": "event"
    },
    {
      "constant": false,
      "inputs": [
        {
          "name": "_saleStartTime",
          "type": "uint256"
        }
      ],
      "name": "changeSaleStartTime",
      "outputs": [
        {
          "name": "",
          "type": "bool"
        }
      ],
      "payable": false,
      "stateMutability": "nonpayable",
      "type": "function"
    },
    {
      "constant": false,
      "inputs": [
        {
          "name": "_saleEndTime",
          "type": "uint256"
        }
      ],
      "name": "changeSaleEndTime",
      "outputs": [
        {
          "name": "",
          "type": "bool"
        }
      ],
      "payable": false,
      "stateMutability": "nonpayable",
      "type": "function"
    },
    {
      "constant": false,
      "inputs": [
        {
          "name": "_salePrice",
          "type": "uint256"
        }
      ],
      "name": "changeSalePrice",
      "outputs": [
        {
          "name": "",
          "type": "bool"
        }
      ],
      "payable": false,
      "stateMutability": "nonpayable",
      "type": "function"
    },
    {
      "constant": false,
      "inputs": [],
      "name": "withdraw",
      "outputs": [
        {
          "name": "",
          "type": "bool"
        }
      ],
      "payable": false,
      "stateMutability": "nonpayable",
      "type": "function"
    },
    {
      "constant": true,
      "inputs": [
        {
          "name": "buyer",
          "type": "address"
        }
      ],
      "name": "getPriceFor",
      "outputs": [
        {
          "name": "",
          "type": "uint256"
        }
      ],
      "payable": false,
      "stateMutability": "view",
      "type": "function"
    },
    {
      "constant": true,
      "inputs": [
        {
          "name": "buyer",
          "type": "address"
        }
      ],
      "name": "isTokensaleOnFor",
      "outputs": [
        {
          "name": "",
          "type": "bool"
        }
      ],
      "payable": false,
      "stateMutability": "view",
      "type": "function"
    }
  ],
  "bytecode": "0x6080604052600a60075534801561001557600080fd5b5060405160c0806111928339810180604052810190808051906020019092919080519060200190929190805190602001909291908051906020019092919080519060200190929190805190602001909291905050508060008173ffffffffffffffffffffffffffffffffffffffff1614156100cf57336000806101000a81548173ffffffffffffffffffffffffffffffffffffffff021916908373ffffffffffffffffffffffffffffffffffffffff160217905550610110565b806000806101000a81548173ffffffffffffffffffffffffffffffffffffffff021916908373ffffffffffffffffffffffffffffffffffffffff1602179055505b5033600860006101000a81548173ffffffffffffffffffffffffffffffffffffffff021916908373ffffffffffffffffffffffffffffffffffffffff16021790555085600260006101000a81548173ffffffffffffffffffffffffffffffffffffffff021916908373ffffffffffffffffffffffffffffffffffffffff16021790555084600360006101000a81548173ffffffffffffffffffffffffffffffffffffffff021916908373ffffffffffffffffffffffffffffffffffffffff160217905550836004819055508260058190555081600681905550505050505050610f94806101fe6000396000f3006080604052600436106100db576000357c0100000000000000000000000000000000000000000000000000000000900463ffffffff1680630c6248de146105535780630e90c00a146105aa5780631cbaee2d146105ef57806324349ee71461061a5780633ccfd60b146106715780635f44e387146106a05780637d2b87c0146106cb57806380425e9d146107225780638f28397014610767578063b5620896146107c2578063ed338ff114610807578063f51f96dd14610832578063f851a4401461085d578063fc0c546a146108b4578063fd9f16011461090b575b6000806100e733610966565b15156100f257600080fd5b6100fb33610adb565b915081341015151561010c57600080fd5b61011f8234610ae790919063ffffffff16565b905080600260009054906101000a900473ffffffffffffffffffffffffffffffffffffffff1673ffffffffffffffffffffffffffffffffffffffff1663dd62ed3e600360009054906101000a900473ffffffffffffffffffffffffffffffffffffffff16306040518363ffffffff167c0100000000000000000000000000000000000000000000000000000000028152600401808373ffffffffffffffffffffffffffffffffffffffff1673ffffffffffffffffffffffffffffffffffffffff1681526020018273ffffffffffffffffffffffffffffffffffffffff1673ffffffffffffffffffffffffffffffffffffffff16815260200192505050602060405180830381600087803b15801561023557600080fd5b505af1158015610249573d6000803e3d6000fd5b505050506040513d602081101561025f57600080fd5b810190808051906020019092919050505010158015610397575080600260009054906101000a900473ffffffffffffffffffffffffffffffffffffffff1673ffffffffffffffffffffffffffffffffffffffff166370a08231600360009054906101000a900473ffffffffffffffffffffffffffffffffffffffff166040518263ffffffff167c0100000000000000000000000000000000000000000000000000000000028152600401808273ffffffffffffffffffffffffffffffffffffffff1673ffffffffffffffffffffffffffffffffffffffff168152602001915050602060405180830381600087803b15801561035957600080fd5b505af115801561036d573d6000803e3d6000fd5b505050506040513d602081101561038357600080fd5b810190808051906020019092919050505010155b15156103a257600080fd5b600260009054906101000a900473ffffffffffffffffffffffffffffffffffffffff1673ffffffffffffffffffffffffffffffffffffffff166323b872dd600360009054906101000a900473ffffffffffffffffffffffffffffffffffffffff1633846040518463ffffffff167c0100000000000000000000000000000000000000000000000000000000028152600401808473ffffffffffffffffffffffffffffffffffffffff1673ffffffffffffffffffffffffffffffffffffffff1681526020018373ffffffffffffffffffffffffffffffffffffffff1673ffffffffffffffffffffffffffffffffffffffff1681526020018281526020019350505050602060405180830381600087803b1580156104bd57600080fd5b505af11580156104d1573d6000803e3d6000fd5b505050506040513d60208110156104e757600080fd5b8101908080519060200190929190505050503373ffffffffffffffffffffffffffffffffffffffff167f35ea94addbc62df281ade49cc2ad9b3d9259166170cf702928b4ddc045f7256e8234604051808381526020018281526020019250505060405180910390a25050005b34801561055f57600080fd5b50610568610afd565b604051808273ffffffffffffffffffffffffffffffffffffffff1673ffffffffffffffffffffffffffffffffffffffff16815260200191505060405180910390f35b3480156105b657600080fd5b506105d560048036038101908080359060200190929190505050610b23565b604051808215151515815260200191505060405180910390f35b3480156105fb57600080fd5b50610604610b90565b6040518082815260200191505060405180910390f35b34801561062657600080fd5b5061062f610b96565b604051808273ffffffffffffffffffffffffffffffffffffffff1673ffffffffffffffffffffffffffffffffffffffff16815260200191505060405180910390f35b34801561067d57600080fd5b50610686610bbc565b604051808215151515815260200191505060405180910390f35b3480156106ac57600080fd5b506106b5610d53565b6040518082815260200191505060405180910390f35b3480156106d757600080fd5b5061070c600480360381019080803573ffffffffffffffffffffffffffffffffffffffff169060200190929190505050610adb565b6040518082815260200191505060405180910390f35b34801561072e57600080fd5b5061074d60048036038101908080359060200190929190505050610d59565b604051808215151515815260200191505060405180910390f35b34801561077357600080fd5b506107a8600480360381019080803573ffffffffffffffffffffffffffffffffffffffff169060200190929190505050610dc6565b604051808215151515815260200191505060405180910390f35b3480156107ce57600080fd5b506107ed60048036038101908080359060200190929190505050610e6c565b604051808215151515815260200191505060405180910390f35b34801561081357600080fd5b5061081c610ed9565b6040518082815260200191505060405180910390f35b34801561083e57600080fd5b50610847610edf565b6040518082815260200191505060405180910390f35b34801561086957600080fd5b50610872610ee5565b604051808273ffffffffffffffffffffffffffffffffffffffff1673ffffffffffffffffffffffffffffffffffffffff16815260200191505060405180910390f35b3480156108c057600080fd5b506108c9610f0a565b604051808273ffffffffffffffffffffffffffffffffffffffff1673ffffffffffffffffffffffffffffffffffffffff16815260200191505060405180910390f35b34801561091757600080fd5b5061094c600480360381019080803573ffffffffffffffffffffffffffffffffffffffff169060200190929190505050610966565b604051808215151515815260200191505060405180910390f35b600080600260009054906101000a900473ffffffffffffffffffffffffffffffffffffffff1673ffffffffffffffffffffffffffffffffffffffff1663dd62ed3e600360009054906101000a900473ffffffffffffffffffffffffffffffffffffffff16306040518363ffffffff167c0100000000000000000000000000000000000000000000000000000000028152600401808373ffffffffffffffffffffffffffffffffffffffff1673ffffffffffffffffffffffffffffffffffffffff1681526020018273ffffffffffffffffffffffffffffffffffffffff1673ffffffffffffffffffffffffffffffffffffffff16815260200192505050602060405180830381600087803b158015610a7c57600080fd5b505af1158015610a90573d6000803e3d6000fd5b505050506040513d6020811015610aa657600080fd5b8101908080519060200190929190505050118015610ac657506004544210155b8015610ad457506005544211155b9050919050565b60006006549050919050565b60008183811515610af457fe5b04905092915050565b600360009054906101000a900473ffffffffffffffffffffffffffffffffffffffff1681565b60008060009054906101000a900473ffffffffffffffffffffffffffffffffffffffff1673ffffffffffffffffffffffffffffffffffffffff163373ffffffffffffffffffffffffffffffffffffffff16141515610b8057600080fd5b8160048190555060019050919050565b60045481565b600860009054906101000a900473ffffffffffffffffffffffffffffffffffffffff1681565b60008060008060009054906101000a900473ffffffffffffffffffffffffffffffffffffffff1673ffffffffffffffffffffffffffffffffffffffff163373ffffffffffffffffffffffffffffffffffffffff16141515610c1c57600080fd5b610c5b600754610c4d60643073ffffffffffffffffffffffffffffffffffffffff1631610ae790919063ffffffff16565b610f3090919063ffffffff16565b9150813073ffffffffffffffffffffffffffffffffffffffff16310390506000809054906101000a900473ffffffffffffffffffffffffffffffffffffffff1673ffffffffffffffffffffffffffffffffffffffff166108fc829081150290604051600060405180830381858888f19350505050158015610ce0573d6000803e3d6000fd5b50600860009054906101000a900473ffffffffffffffffffffffffffffffffffffffff1673ffffffffffffffffffffffffffffffffffffffff166108fc839081150290604051600060405180830381858888f19350505050158015610d49573d6000803e3d6000fd5b5060019250505090565b60075481565b60008060009054906101000a900473ffffffffffffffffffffffffffffffffffffffff1673ffffffffffffffffffffffffffffffffffffffff163373ffffffffffffffffffffffffffffffffffffffff16141515610db657600080fd5b8160058190555060019050919050565b60008060009054906101000a900473ffffffffffffffffffffffffffffffffffffffff1673ffffffffffffffffffffffffffffffffffffffff163373ffffffffffffffffffffffffffffffffffffffff16141515610e2357600080fd5b816000806101000a81548173ffffffffffffffffffffffffffffffffffffffff021916908373ffffffffffffffffffffffffffffffffffffffff16021790555060019050919050565b60008060009054906101000a900473ffffffffffffffffffffffffffffffffffffffff1673ffffffffffffffffffffffffffffffffffffffff163373ffffffffffffffffffffffffffffffffffffffff16141515610ec957600080fd5b8160068190555060019050919050565b60055481565b60065481565b6000809054906101000a900473ffffffffffffffffffffffffffffffffffffffff1681565b600260009054906101000a900473ffffffffffffffffffffffffffffffffffffffff1681565b600080831415610f435760009050610f62565b8183029050818382811515610f5457fe5b04141515610f5e57fe5b8090505b929150505600a165627a7a7230582052b01774b13191b259ec05fd85120bac40442aa4f70b2c55cb80092e7606e2150029",
  "source": "/**\n * XXX replace this with zeppelin-solidity/crowdsale contracts\n *\n * Basic tokensale contract with platform fee\n * To get this Takesale to work, the seller must first give allowance to\n * the tokensale contract in the ERC20\n */\n\npragma solidity ^0.4.18;\n\nimport \"./Owned.sol\";\nimport \"./ERC20Interface.sol\";\nimport \"./TokensaleInterface.sol\";\nimport \"node_modules/zeppelin-solidity/contracts/math/SafeMath.sol\";\n\ncontract BasicTokensale is Owned, TokensaleInterface {\n    using SafeMath for uint256;\n\n    ERC20Interface public token;\n    address public tokenSeller;\n    uint public saleStartTime;\n    uint public saleEndTime;\n    uint public salePrice; // how much wei per token?\n\n    // platform fees and stuff\n    uint public platFeePercent = 10; // XXX\n    address public platAddr;\n\n    function BasicTokensale(\n        ERC20Interface _token,\n        address _tokenSeller,\n        uint _saleStartTime,\n        uint _saleEndTime,\n        uint _salePrice,\n        address _initialAdmin)\n        Owned(_initialAdmin)\n        public\n    {\n        platAddr = msg.sender;\n        token = _token;\n        tokenSeller = _tokenSeller;\n        saleStartTime = _saleStartTime;\n        saleEndTime = _saleEndTime;\n        salePrice = _salePrice;\n    }\n\n    /**\n     * fallback payable function\n     * This is called by suckers who want to buy your token\n     */\n    function() public payable {\n        // the tokensale must be on for the buyer\n        require(isTokensaleOnFor(msg.sender));\n        // must send enough to buy at least 1 coin\n        uint price = getPriceFor(msg.sender);\n        require(msg.value >= price);\n        uint tokensBuying = msg.value.div(price);\n        // make sure we have enough coins left to sell\n        require(\n            token.allowance(tokenSeller, this) >= tokensBuying &&\n            token.balanceOf(tokenSeller) >= tokensBuying\n            );\n        // give the buyer the tokens\n        token.transferFrom(tokenSeller, msg.sender, tokensBuying);\n        TokenSold(msg.sender, tokensBuying, msg.value);\n    }\n\n    /* All the admin stuff */\n\n    function changeSaleStartTime(uint _saleStartTime)\n        onlyAdmin\n        public\n        returns (bool)\n    {\n        saleStartTime = _saleStartTime;\n        return true;\n    }\n\n    function changeSaleEndTime(uint _saleEndTime)\n        onlyAdmin\n        public\n        returns (bool)\n    {\n        saleEndTime = _saleEndTime;\n        return true;\n    }\n\n    function changeSalePrice(uint _salePrice)\n        onlyAdmin\n        public\n        returns (bool)\n    {\n        salePrice = _salePrice;\n        return true;\n    }\n\n    /**\n     * Cash out baby\n     */\n    function withdraw()\n        onlyAdmin\n        public\n        returns (bool)\n    {\n        // XXX use withdraw pattern\n        uint platFees = address(this).balance.div(100).mul(platFeePercent);\n        uint payout = address(this).balance - platFees;\n        admin.transfer(payout);\n        platAddr.transfer(platFees);\n        return true;\n    }\n\n    /* TokensaleInterface implementation */\n\n    function getPriceFor(address buyer)\n        view\n        public\n        returns (uint)\n    {\n        return salePrice;\n    }\n\n    function isTokensaleOnFor(address buyer)\n        view\n        public\n        returns (bool)\n    {\n        return (token.allowance(tokenSeller, this) > 0 &&\n            block.timestamp >= saleStartTime && block.timestamp <= saleEndTime);\n    }\n\n}\n",
  "sourcePath": "/home/liberty/workspace/oneclick-ico/contracts/BasicTokensale.sol",
  "compiler": {
    "name": "solc",
    "version": "0.4.23+commit.124ca40d.Emscripten.clang"
  },
  "schemaVersion": "2.0.0",
  "updatedAt": "2018-05-16T01:20:45.135Z"
}