{
  "contractName": "BasicTokensale",
  "abi": [
    {
      "constant": true,
      "inputs": [],
      "name": "tokenSeller",
      "outputs": [
        {
          "name": "",
          "type": "address"
        }
      ],
      "payable": false,
      "stateMutability": "view",
      "type": "function"
    },
    {
      "constant": false,
      "inputs": [
        {
          "name": "_saleStartTime",
          "type": "uint256"
        }
      ],
      "name": "changeSaleStartTime",
      "outputs": [
        {
          "name": "",
          "type": "bool"
        }
      ],
      "payable": false,
      "stateMutability": "nonpayable",
      "type": "function"
    },
    {
      "constant": true,
      "inputs": [],
      "name": "saleStartTime",
      "outputs": [
        {
          "name": "",
          "type": "uint256"
        }
      ],
      "payable": false,
      "stateMutability": "view",
      "type": "function"
    },
    {
      "constant": false,
      "inputs": [],
      "name": "withdraw",
      "outputs": [
        {
          "name": "",
          "type": "bool"
        }
      ],
      "payable": false,
      "stateMutability": "nonpayable",
      "type": "function"
    },
    {
      "constant": true,
      "inputs": [
        {
          "name": "buyer",
          "type": "address"
        }
      ],
      "name": "getPriceFor",
      "outputs": [
        {
          "name": "",
          "type": "uint256"
        }
      ],
      "payable": false,
      "stateMutability": "view",
      "type": "function"
    },
    {
      "constant": false,
      "inputs": [
        {
          "name": "_saleEndTime",
          "type": "uint256"
        }
      ],
      "name": "changeSaleEndTime",
      "outputs": [
        {
          "name": "",
          "type": "bool"
        }
      ],
      "payable": false,
      "stateMutability": "nonpayable",
      "type": "function"
    },
    {
      "constant": false,
      "inputs": [
        {
          "name": "newAdmin",
          "type": "address"
        }
      ],
      "name": "changeAdmin",
      "outputs": [
        {
          "name": "",
          "type": "bool"
        }
      ],
      "payable": false,
      "stateMutability": "nonpayable",
      "type": "function"
    },
    {
      "constant": false,
      "inputs": [
        {
          "name": "_salePrice",
          "type": "uint256"
        }
      ],
      "name": "changeSalePrice",
      "outputs": [
        {
          "name": "",
          "type": "bool"
        }
      ],
      "payable": false,
      "stateMutability": "nonpayable",
      "type": "function"
    },
    {
      "constant": true,
      "inputs": [],
      "name": "saleEndTime",
      "outputs": [
        {
          "name": "",
          "type": "uint256"
        }
      ],
      "payable": false,
      "stateMutability": "view",
      "type": "function"
    },
    {
      "constant": true,
      "inputs": [],
      "name": "salePrice",
      "outputs": [
        {
          "name": "",
          "type": "uint256"
        }
      ],
      "payable": false,
      "stateMutability": "view",
      "type": "function"
    },
    {
      "constant": true,
      "inputs": [],
      "name": "admin",
      "outputs": [
        {
          "name": "",
          "type": "address"
        }
      ],
      "payable": false,
      "stateMutability": "view",
      "type": "function"
    },
    {
      "constant": true,
      "inputs": [],
      "name": "token",
      "outputs": [
        {
          "name": "",
          "type": "address"
        }
      ],
      "payable": false,
      "stateMutability": "view",
      "type": "function"
    },
    {
      "constant": true,
      "inputs": [
        {
          "name": "buyer",
          "type": "address"
        }
      ],
      "name": "isTokensaleOnFor",
      "outputs": [
        {
          "name": "",
          "type": "bool"
        }
      ],
      "payable": false,
      "stateMutability": "view",
      "type": "function"
    },
    {
      "inputs": [
        {
          "name": "_token",
          "type": "address"
        },
        {
          "name": "_tokenSeller",
          "type": "address"
        },
        {
          "name": "_saleStartTime",
          "type": "uint256"
        },
        {
          "name": "_saleEndTime",
          "type": "uint256"
        },
        {
          "name": "_salePrice",
          "type": "uint256"
        },
        {
          "name": "_initialAdmin",
          "type": "address"
        }
      ],
      "payable": false,
      "stateMutability": "nonpayable",
      "type": "constructor"
    },
    {
      "payable": true,
      "stateMutability": "payable",
      "type": "fallback"
    },
    {
      "anonymous": false,
      "inputs": [
        {
          "indexed": true,
          "name": "buyer",
          "type": "address"
        },
        {
          "indexed": false,
          "name": "tokenAmount",
          "type": "uint256"
        },
        {
          "indexed": false,
          "name": "value",
          "type": "uint256"
        }
      ],
      "name": "TokenSold",
      "type": "event"
    }
  ],
  "bytecode": "0x6060604052341561000f57600080fd5b60405160c080610ec1833981016040528080519060200190919080519060200190919080519060200190919080519060200190919080519060200190919080519060200190919050508060008173ffffffffffffffffffffffffffffffffffffffff1614156100bd57336000806101000a81548173ffffffffffffffffffffffffffffffffffffffff021916908373ffffffffffffffffffffffffffffffffffffffff1602179055506100fe565b806000806101000a81548173ffffffffffffffffffffffffffffffffffffffff021916908373ffffffffffffffffffffffffffffffffffffffff1602179055505b5085600260006101000a81548173ffffffffffffffffffffffffffffffffffffffff021916908373ffffffffffffffffffffffffffffffffffffffff16021790555084600360006101000a81548173ffffffffffffffffffffffffffffffffffffffff021916908373ffffffffffffffffffffffffffffffffffffffff160217905550836004819055508260058190555081600681905550505050505050610d16806101ab6000396000f3006060604052600436106100c5576000357c0100000000000000000000000000000000000000000000000000000000900463ffffffff1680630c6248de146104ee5780630e90c00a146105435780631cbaee2d1461057e5780633ccfd60b146105a75780637d2b87c0146105d457806380425e9d146106215780638f2839701461065c578063b5620896146106ad578063ed338ff1146106e8578063f51f96dd14610711578063f851a4401461073a578063fc0c546a1461078f578063fd9f1601146107e4575b6000806100d133610835565b15156100dc57600080fd5b6100e533610992565b91508134101515156100f657600080fd5b813481151561010157fe5b04905080600260009054906101000a900473ffffffffffffffffffffffffffffffffffffffff1673ffffffffffffffffffffffffffffffffffffffff1663dd62ed3e600360009054906101000a900473ffffffffffffffffffffffffffffffffffffffff16306000604051602001526040518363ffffffff167c0100000000000000000000000000000000000000000000000000000000028152600401808373ffffffffffffffffffffffffffffffffffffffff1673ffffffffffffffffffffffffffffffffffffffff1681526020018273ffffffffffffffffffffffffffffffffffffffff1673ffffffffffffffffffffffffffffffffffffffff16815260200192505050602060405180830381600087803b151561022057600080fd5b6102c65a03f1151561023157600080fd5b505050604051805190501015801561034a575080600260009054906101000a900473ffffffffffffffffffffffffffffffffffffffff1673ffffffffffffffffffffffffffffffffffffffff166370a08231600360009054906101000a900473ffffffffffffffffffffffffffffffffffffffff166000604051602001526040518263ffffffff167c0100000000000000000000000000000000000000000000000000000000028152600401808273ffffffffffffffffffffffffffffffffffffffff1673ffffffffffffffffffffffffffffffffffffffff168152602001915050602060405180830381600087803b151561032c57600080fd5b6102c65a03f1151561033d57600080fd5b5050506040518051905010155b151561035557600080fd5b600260009054906101000a900473ffffffffffffffffffffffffffffffffffffffff1673ffffffffffffffffffffffffffffffffffffffff166323b872dd600360009054906101000a900473ffffffffffffffffffffffffffffffffffffffff1633846000604051602001526040518463ffffffff167c0100000000000000000000000000000000000000000000000000000000028152600401808473ffffffffffffffffffffffffffffffffffffffff1673ffffffffffffffffffffffffffffffffffffffff1681526020018373ffffffffffffffffffffffffffffffffffffffff1673ffffffffffffffffffffffffffffffffffffffff1681526020018281526020019350505050602060405180830381600087803b151561047857600080fd5b6102c65a03f1151561048957600080fd5b50505060405180519050503373ffffffffffffffffffffffffffffffffffffffff167f35ea94addbc62df281ade49cc2ad9b3d9259166170cf702928b4ddc045f7256e8234604051808381526020018281526020019250505060405180910390a25050005b34156104f957600080fd5b61050161099e565b604051808273ffffffffffffffffffffffffffffffffffffffff1673ffffffffffffffffffffffffffffffffffffffff16815260200191505060405180910390f35b341561054e57600080fd5b61056460048080359060200190919050506109c4565b604051808215151515815260200191505060405180910390f35b341561058957600080fd5b610591610a31565b6040518082815260200191505060405180910390f35b34156105b257600080fd5b6105ba610a37565b604051808215151515815260200191505060405180910390f35b34156105df57600080fd5b61060b600480803573ffffffffffffffffffffffffffffffffffffffff16906020019091905050610992565b6040518082815260200191505060405180910390f35b341561062c57600080fd5b6106426004808035906020019091905050610b13565b604051808215151515815260200191505060405180910390f35b341561066757600080fd5b610693600480803573ffffffffffffffffffffffffffffffffffffffff16906020019091905050610b80565b604051808215151515815260200191505060405180910390f35b34156106b857600080fd5b6106ce6004808035906020019091905050610c26565b604051808215151515815260200191505060405180910390f35b34156106f357600080fd5b6106fb610c93565b6040518082815260200191505060405180910390f35b341561071c57600080fd5b610724610c99565b6040518082815260200191505060405180910390f35b341561074557600080fd5b61074d610c9f565b604051808273ffffffffffffffffffffffffffffffffffffffff1673ffffffffffffffffffffffffffffffffffffffff16815260200191505060405180910390f35b341561079a57600080fd5b6107a2610cc4565b604051808273ffffffffffffffffffffffffffffffffffffffff1673ffffffffffffffffffffffffffffffffffffffff16815260200191505060405180910390f35b34156107ef57600080fd5b61081b600480803573ffffffffffffffffffffffffffffffffffffffff16906020019091905050610835565b604051808215151515815260200191505060405180910390f35b600080600260009054906101000a900473ffffffffffffffffffffffffffffffffffffffff1673ffffffffffffffffffffffffffffffffffffffff1663dd62ed3e600360009054906101000a900473ffffffffffffffffffffffffffffffffffffffff16306000604051602001526040518363ffffffff167c0100000000000000000000000000000000000000000000000000000000028152600401808373ffffffffffffffffffffffffffffffffffffffff1673ffffffffffffffffffffffffffffffffffffffff1681526020018273ffffffffffffffffffffffffffffffffffffffff1673ffffffffffffffffffffffffffffffffffffffff16815260200192505050602060405180830381600087803b151561095357600080fd5b6102c65a03f1151561096457600080fd5b5050506040518051905011801561097d57506004544210155b801561098b57506005544211155b9050919050565b60006006549050919050565b600360009054906101000a900473ffffffffffffffffffffffffffffffffffffffff1681565b60008060009054906101000a900473ffffffffffffffffffffffffffffffffffffffff1673ffffffffffffffffffffffffffffffffffffffff163373ffffffffffffffffffffffffffffffffffffffff16141515610a2157600080fd5b8160048190555060019050919050565b60045481565b60008060009054906101000a900473ffffffffffffffffffffffffffffffffffffffff1673ffffffffffffffffffffffffffffffffffffffff163373ffffffffffffffffffffffffffffffffffffffff16141515610a9457600080fd5b6000809054906101000a900473ffffffffffffffffffffffffffffffffffffffff1673ffffffffffffffffffffffffffffffffffffffff166108fc3073ffffffffffffffffffffffffffffffffffffffff16319081150290604051600060405180830381858888f193505050501515610b0c57600080fd5b6001905090565b60008060009054906101000a900473ffffffffffffffffffffffffffffffffffffffff1673ffffffffffffffffffffffffffffffffffffffff163373ffffffffffffffffffffffffffffffffffffffff16141515610b7057600080fd5b8160058190555060019050919050565b60008060009054906101000a900473ffffffffffffffffffffffffffffffffffffffff1673ffffffffffffffffffffffffffffffffffffffff163373ffffffffffffffffffffffffffffffffffffffff16141515610bdd57600080fd5b816000806101000a81548173ffffffffffffffffffffffffffffffffffffffff021916908373ffffffffffffffffffffffffffffffffffffffff16021790555060019050919050565b60008060009054906101000a900473ffffffffffffffffffffffffffffffffffffffff1673ffffffffffffffffffffffffffffffffffffffff163373ffffffffffffffffffffffffffffffffffffffff16141515610c8357600080fd5b8160068190555060019050919050565b60055481565b60065481565b6000809054906101000a900473ffffffffffffffffffffffffffffffffffffffff1681565b600260009054906101000a900473ffffffffffffffffffffffffffffffffffffffff16815600a165627a7a723058202dbffe8238b5dc07f95761fe3331e9b7cd7a4a41bb168da9e8156948423dd2560029",
  "source": "/**\n * Basic tokensale contract, no-frills.\n * To get this Takesale to work, the seller must first give allowance to\n * the tokensale contract in the ERC20\n */\n\npragma solidity ^0.4.18;\n\nimport \"./Owned.sol\";\nimport \"./ERC20Interface.sol\";\nimport \"./TokensaleInterface.sol\";\n\ncontract BasicTokensale is Owned, TokensaleInterface {\n    ERC20Interface public token;\n    address public tokenSeller;\n    uint public saleStartTime;\n    uint public saleEndTime;\n    uint public salePrice; // how much wei per token?\n\n    function BasicTokensale(\n        ERC20Interface _token,\n        address _tokenSeller,\n        uint _saleStartTime,\n        uint _saleEndTime,\n        uint _salePrice,\n        address _initialAdmin)\n        Owned(_initialAdmin)\n        public\n    {\n        token = _token;\n        tokenSeller = _tokenSeller;\n        saleStartTime = _saleStartTime;\n        saleEndTime = _saleEndTime;\n        salePrice = _salePrice;\n    }\n\n    /**\n     * fallback payable function\n     * This is called by suckers who want to buy your token\n     */\n    function() public payable {\n        // the tokensale must be on for the buyer\n        require(isTokensaleOnFor(msg.sender));\n        // must send enough to buy at least 1 coin\n        uint price = getPriceFor(msg.sender);\n        require(msg.value >= price);\n        uint tokensBuying = (msg.value / price);\n        // make sure we have enough coins left to sell\n        require(token.allowance(tokenSeller, this) >= tokensBuying &&\n            token.balanceOf(tokenSeller) >= tokensBuying);\n        // give the buyer the tokens\n        token.transferFrom(tokenSeller, msg.sender, tokensBuying);\n        TokenSold(msg.sender, tokensBuying, msg.value);\n    }\n\n    /* All the admin stuff */\n\n    function changeSaleStartTime(uint _saleStartTime)\n        onlyAdmin\n        public\n        returns (bool)\n    {\n        saleStartTime = _saleStartTime;\n        return true;\n    }\n\n    function changeSaleEndTime(uint _saleEndTime)\n        onlyAdmin\n        public\n        returns (bool)\n    {\n        saleEndTime = _saleEndTime;\n        return true;\n    }\n\n    function changeSalePrice(uint _salePrice)\n        onlyAdmin\n        public\n        returns (bool)\n    {\n        salePrice = _salePrice;\n        return true;\n    }\n\n    /**\n     * Cash out baby\n     */\n    function withdraw()\n        onlyAdmin\n        public\n        returns (bool)\n    {\n        admin.transfer(this.balance);\n        return true;\n    }\n\n    /* TokensaleInterface implementation */\n\n    function getPriceFor(address buyer)\n        view\n        public\n        returns (uint)\n    {\n        return salePrice;\n    }\n\n    function isTokensaleOnFor(address buyer)\n        view\n        public\n        returns (bool)\n    {\n        return (token.allowance(tokenSeller, this) > 0 &&\n            block.timestamp >= saleStartTime && block.timestamp <= saleEndTime);\n    }\n\n}\n",
  "sourcePath": "/home/liberty/workspace/oneclick-ico/contracts/BasicTokensale.sol",
  "compiler": {
    "name": "solc",
    "version": "0.4.18+commit.9cf6e910.Emscripten.clang"
  },
  "schemaVersion": "1.0.1",
  "updatedAt": "2018-01-27T02:50:46.795Z"
}