{
  "contractName": "ICOableToken",
  "abi": [
    {
      "constant": true,
      "inputs": [],
      "name": "name",
      "outputs": [
        {
          "name": "",
          "type": "string"
        }
      ],
      "payable": false,
      "stateMutability": "view",
      "type": "function"
    },
    {
      "constant": false,
      "inputs": [
        {
          "name": "_spender",
          "type": "address"
        },
        {
          "name": "_value",
          "type": "uint256"
        }
      ],
      "name": "approve",
      "outputs": [
        {
          "name": "success",
          "type": "bool"
        }
      ],
      "payable": false,
      "stateMutability": "nonpayable",
      "type": "function"
    },
    {
      "constant": true,
      "inputs": [],
      "name": "tokenSeller",
      "outputs": [
        {
          "name": "",
          "type": "address"
        }
      ],
      "payable": false,
      "stateMutability": "view",
      "type": "function"
    },
    {
      "constant": true,
      "inputs": [],
      "name": "totalSupply",
      "outputs": [
        {
          "name": "",
          "type": "uint256"
        }
      ],
      "payable": false,
      "stateMutability": "view",
      "type": "function"
    },
    {
      "constant": false,
      "inputs": [
        {
          "name": "_from",
          "type": "address"
        },
        {
          "name": "_to",
          "type": "address"
        },
        {
          "name": "_value",
          "type": "uint256"
        }
      ],
      "name": "transferFrom",
      "outputs": [
        {
          "name": "success",
          "type": "bool"
        }
      ],
      "payable": false,
      "stateMutability": "nonpayable",
      "type": "function"
    },
    {
      "constant": true,
      "inputs": [],
      "name": "decimals",
      "outputs": [
        {
          "name": "",
          "type": "uint8"
        }
      ],
      "payable": false,
      "stateMutability": "view",
      "type": "function"
    },
    {
      "constant": true,
      "inputs": [
        {
          "name": "_owner",
          "type": "address"
        }
      ],
      "name": "balanceOf",
      "outputs": [
        {
          "name": "balance",
          "type": "uint256"
        }
      ],
      "payable": false,
      "stateMutability": "view",
      "type": "function"
    },
    {
      "constant": true,
      "inputs": [],
      "name": "symbol",
      "outputs": [
        {
          "name": "",
          "type": "string"
        }
      ],
      "payable": false,
      "stateMutability": "view",
      "type": "function"
    },
    {
      "constant": false,
      "inputs": [
        {
          "name": "_to",
          "type": "address"
        },
        {
          "name": "_value",
          "type": "uint256"
        }
      ],
      "name": "transfer",
      "outputs": [
        {
          "name": "success",
          "type": "bool"
        }
      ],
      "payable": false,
      "stateMutability": "nonpayable",
      "type": "function"
    },
    {
      "constant": true,
      "inputs": [],
      "name": "tradableAfter",
      "outputs": [
        {
          "name": "",
          "type": "uint256"
        }
      ],
      "payable": false,
      "stateMutability": "view",
      "type": "function"
    },
    {
      "constant": false,
      "inputs": [
        {
          "name": "_spender",
          "type": "address"
        },
        {
          "name": "_value",
          "type": "uint256"
        },
        {
          "name": "_extraData",
          "type": "bytes"
        }
      ],
      "name": "approveAndCall",
      "outputs": [
        {
          "name": "success",
          "type": "bool"
        }
      ],
      "payable": false,
      "stateMutability": "nonpayable",
      "type": "function"
    },
    {
      "constant": true,
      "inputs": [
        {
          "name": "_owner",
          "type": "address"
        },
        {
          "name": "_spender",
          "type": "address"
        }
      ],
      "name": "allowance",
      "outputs": [
        {
          "name": "remaining",
          "type": "uint256"
        }
      ],
      "payable": false,
      "stateMutability": "view",
      "type": "function"
    },
    {
      "inputs": [
        {
          "name": "_initialAmount",
          "type": "uint256"
        },
        {
          "name": "_tokenName",
          "type": "string"
        },
        {
          "name": "_decimalUnits",
          "type": "uint8"
        },
        {
          "name": "_tokenSymbol",
          "type": "string"
        },
        {
          "name": "_tradableAfter",
          "type": "uint256"
        },
        {
          "name": "_tokenSeller",
          "type": "address"
        }
      ],
      "payable": false,
      "stateMutability": "nonpayable",
      "type": "constructor"
    },
    {
      "anonymous": false,
      "inputs": [
        {
          "indexed": true,
          "name": "_from",
          "type": "address"
        },
        {
          "indexed": true,
          "name": "_to",
          "type": "address"
        },
        {
          "indexed": false,
          "name": "_value",
          "type": "uint256"
        }
      ],
      "name": "Transfer",
      "type": "event"
    },
    {
      "anonymous": false,
      "inputs": [
        {
          "indexed": true,
          "name": "_owner",
          "type": "address"
        },
        {
          "indexed": true,
          "name": "_spender",
          "type": "address"
        },
        {
          "indexed": false,
          "name": "_value",
          "type": "uint256"
        }
      ],
      "name": "Approval",
      "type": "event"
    }
  ],
  "bytecode": "0x6060604052341561000f57600080fd5b604051620011c9380380620011c98339810160405280805190602001909190805182019190602001805190602001909190805182019190602001805190602001909190805190602001909190505080600760006101000a81548173ffffffffffffffffffffffffffffffffffffffff021916908373ffffffffffffffffffffffffffffffffffffffff16021790555085600160008373ffffffffffffffffffffffffffffffffffffffff1673ffffffffffffffffffffffffffffffffffffffff168152602001908152602001600020819055508560008190555084600390805190602001906100ff929190610144565b5083600460006101000a81548160ff021916908360ff1602179055508260059080519060200190610131929190610144565b50816006819055505050505050506101e9565b828054600181600116156101000203166002900490600052602060002090601f016020900481019282601f1061018557805160ff19168380011785556101b3565b828001600101855582156101b3579182015b828111156101b2578251825591602001919060010190610197565b5b5090506101c091906101c4565b5090565b6101e691905b808211156101e25760008160009055506001016101ca565b5090565b90565b610fd080620001f96000396000f3006060604052600436106100ba576000357c0100000000000000000000000000000000000000000000000000000000900463ffffffff16806306fdde03146100bf578063095ea7b31461014d5780630c6248de146101a757806318160ddd146101fc57806323b872dd14610225578063313ce5671461029e57806370a08231146102cd57806395d89b411461031a578063a9059cbb146103a8578063cae7f9c814610402578063cae9ca511461042b578063dd62ed3e146104c8575b600080fd5b34156100ca57600080fd5b6100d2610534565b6040518080602001828103825283818151815260200191508051906020019080838360005b838110156101125780820151818401526020810190506100f7565b50505050905090810190601f16801561013f5780820380516001836020036101000a031916815260200191505b509250505060405180910390f35b341561015857600080fd5b61018d600480803573ffffffffffffffffffffffffffffffffffffffff169060200190919080359060200190919050506105d2565b604051808215151515815260200191505060405180910390f35b34156101b257600080fd5b6101ba6106c4565b604051808273ffffffffffffffffffffffffffffffffffffffff1673ffffffffffffffffffffffffffffffffffffffff16815260200191505060405180910390f35b341561020757600080fd5b61020f6106ea565b6040518082815260200191505060405180910390f35b341561023057600080fd5b610284600480803573ffffffffffffffffffffffffffffffffffffffff1690602001909190803573ffffffffffffffffffffffffffffffffffffffff169060200190919080359060200190919050506106f0565b604051808215151515815260200191505060405180910390f35b34156102a957600080fd5b6102b1610770565b604051808260ff1660ff16815260200191505060405180910390f35b34156102d857600080fd5b610304600480803573ffffffffffffffffffffffffffffffffffffffff16906020019091905050610783565b6040518082815260200191505060405180910390f35b341561032557600080fd5b61032d6107cc565b6040518080602001828103825283818151815260200191508051906020019080838360005b8381101561036d578082015181840152602081019050610352565b50505050905090810190601f16801561039a5780820380516001836020036101000a031916815260200191505b509250505060405180910390f35b34156103b357600080fd5b6103e8600480803573ffffffffffffffffffffffffffffffffffffffff1690602001909190803590602001909190505061086a565b604051808215151515815260200191505060405180910390f35b341561040d57600080fd5b6104156108e8565b6040518082815260200191505060405180910390f35b341561043657600080fd5b6104ae600480803573ffffffffffffffffffffffffffffffffffffffff1690602001909190803590602001909190803590602001908201803590602001908080601f016020809104026020016040519081016040528093929190818152602001838380828437820191505050505050919050506108ee565b604051808215151515815260200191505060405180910390f35b34156104d357600080fd5b61051e600480803573ffffffffffffffffffffffffffffffffffffffff1690602001909190803573ffffffffffffffffffffffffffffffffffffffff16906020019091905050610b58565b6040518082815260200191505060405180910390f35b60038054600181600116156101000203166002900480601f0160208091040260200160405190810160405280929190818152602001828054600181600116156101000203166002900480156105ca5780601f1061059f576101008083540402835291602001916105ca565b820191906000526020600020905b8154815290600101906020018083116105ad57829003601f168201915b505050505081565b600081600260003373ffffffffffffffffffffffffffffffffffffffff1673ffffffffffffffffffffffffffffffffffffffff16815260200190815260200160002060008573ffffffffffffffffffffffffffffffffffffffff1673ffffffffffffffffffffffffffffffffffffffff168152602001908152602001600020819055508273ffffffffffffffffffffffffffffffffffffffff163373ffffffffffffffffffffffffffffffffffffffff167f8c5be1e5ebec7d5bd14f71427d1e84f3dd0314c0f7b2291e5b200ac8c7c3b925846040518082815260200191505060405180910390a36001905092915050565b600760009054906101000a900473ffffffffffffffffffffffffffffffffffffffff1681565b60005481565b600083600760009054906101000a900473ffffffffffffffffffffffffffffffffffffffff1673ffffffffffffffffffffffffffffffffffffffff168173ffffffffffffffffffffffffffffffffffffffff1614151561075b576006544211151561075a57600080fd5b5b610766858585610bdf565b9150509392505050565b600460009054906101000a900460ff1681565b6000600160008373ffffffffffffffffffffffffffffffffffffffff1673ffffffffffffffffffffffffffffffffffffffff168152602001908152602001600020549050919050565b60058054600181600116156101000203166002900480601f0160208091040260200160405190810160405280929190818152602001828054600181600116156101000203166002900480156108625780601f1061083757610100808354040283529160200191610862565b820191906000526020600020905b81548152906001019060200180831161084557829003601f168201915b505050505081565b600033600760009054906101000a900473ffffffffffffffffffffffffffffffffffffffff1673ffffffffffffffffffffffffffffffffffffffff168173ffffffffffffffffffffffffffffffffffffffff161415156108d557600654421115156108d457600080fd5b5b6108df8484610e4b565b91505092915050565b60065481565b60008083600260003373ffffffffffffffffffffffffffffffffffffffff1673ffffffffffffffffffffffffffffffffffffffff16815260200190815260200160002060008773ffffffffffffffffffffffffffffffffffffffff1673ffffffffffffffffffffffffffffffffffffffff168152602001908152602001600020819055508473ffffffffffffffffffffffffffffffffffffffff163373ffffffffffffffffffffffffffffffffffffffff167f8c5be1e5ebec7d5bd14f71427d1e84f3dd0314c0f7b2291e5b200ac8c7c3b925866040518082815260200191505060405180910390a38490508073ffffffffffffffffffffffffffffffffffffffff16638f4ffcb1338630876000604051602001526040518563ffffffff167c0100000000000000000000000000000000000000000000000000000000028152600401808573ffffffffffffffffffffffffffffffffffffffff1673ffffffffffffffffffffffffffffffffffffffff1681526020018481526020018373ffffffffffffffffffffffffffffffffffffffff1673ffffffffffffffffffffffffffffffffffffffff16815260200180602001828103825283818151815260200191508051906020019080838360005b83811015610ad8578082015181840152602081019050610abd565b50505050905090810190601f168015610b055780820380516001836020036101000a031916815260200191505b5095505050505050602060405180830381600087803b1515610b2657600080fd5b6102c65a03f11515610b3757600080fd5b505050604051805190501515610b4c57600080fd5b60019150509392505050565b6000600260008473ffffffffffffffffffffffffffffffffffffffff1673ffffffffffffffffffffffffffffffffffffffff16815260200190815260200160002060008373ffffffffffffffffffffffffffffffffffffffff1673ffffffffffffffffffffffffffffffffffffffff16815260200190815260200160002054905092915050565b600081600160008673ffffffffffffffffffffffffffffffffffffffff1673ffffffffffffffffffffffffffffffffffffffff1681526020019081526020016000205410158015610cac575081600260008673ffffffffffffffffffffffffffffffffffffffff1673ffffffffffffffffffffffffffffffffffffffff16815260200190815260200160002060003373ffffffffffffffffffffffffffffffffffffffff1673ffffffffffffffffffffffffffffffffffffffff1681526020019081526020016000205410155b1515610cb757600080fd5b81600160008573ffffffffffffffffffffffffffffffffffffffff1673ffffffffffffffffffffffffffffffffffffffff1681526020019081526020016000206000828254019250508190555081600160008673ffffffffffffffffffffffffffffffffffffffff1673ffffffffffffffffffffffffffffffffffffffff1681526020019081526020016000206000828254039250508190555081600260008673ffffffffffffffffffffffffffffffffffffffff1673ffffffffffffffffffffffffffffffffffffffff16815260200190815260200160002060003373ffffffffffffffffffffffffffffffffffffffff1673ffffffffffffffffffffffffffffffffffffffff168152602001908152602001600020600082825403925050819055508273ffffffffffffffffffffffffffffffffffffffff168473ffffffffffffffffffffffffffffffffffffffff167fddf252ad1be2c89b69c2b068fc378daa952ba7f163c4a11628f55a4df523b3ef846040518082815260200191505060405180910390a3600190509392505050565b600081600160003373ffffffffffffffffffffffffffffffffffffffff1673ffffffffffffffffffffffffffffffffffffffff1681526020019081526020016000205410151515610e9b57600080fd5b81600160003373ffffffffffffffffffffffffffffffffffffffff1673ffffffffffffffffffffffffffffffffffffffff1681526020019081526020016000206000828254039250508190555081600160008573ffffffffffffffffffffffffffffffffffffffff1673ffffffffffffffffffffffffffffffffffffffff168152602001908152602001600020600082825401925050819055508273ffffffffffffffffffffffffffffffffffffffff163373ffffffffffffffffffffffffffffffffffffffff167fddf252ad1be2c89b69c2b068fc378daa952ba7f163c4a11628f55a4df523b3ef846040518082815260200191505060405180910390a360019050929150505600a165627a7a72305820c9e9b2a92b8b2f0d5b3974517416087986b0ca72265987557032cacb6b8c98770029",
  "source": "/**\n * ICOable token\n * Similar to HumanStandardToken, but with additional features like\n * trade locking until a timestamp\n */\n\npragma solidity ^0.4.18;\n\nimport \"./StandardToken.sol\";\n\ncontract ICOableToken is StandardToken {\n\n    /* Public variables of the token */\n    string public name;\n    uint8 public decimals;\n    string public symbol;\n    uint public tradableAfter;\n    address public tokenSeller;\n\n    /* Modifiers */\n    modifier requireTradableFrom(address _from) {\n        // tokenseller can move tokens anytime without restriction\n        // others can only trade after the tradable timestamp\n        if (_from != tokenSeller) {\n            require(block.timestamp > tradableAfter);\n        }\n        _;\n    }\n\n    function ICOableToken(\n        uint256 _initialAmount,\n        string _tokenName,\n        uint8 _decimalUnits,\n        string _tokenSymbol,\n        uint _tradableAfter,\n        address _tokenSeller)\n        public\n    {\n        tokenSeller = _tokenSeller;\n        balances[_tokenSeller] = _initialAmount;\n        totalSupply = _initialAmount;\n        name = _tokenName;\n        decimals = _decimalUnits;\n        symbol = _tokenSymbol;\n        tradableAfter = _tradableAfter;\n    }\n\n    function transfer(address _to, uint256 _value)\n        requireTradableFrom(msg.sender)\n        public\n        returns (bool success)\n    {\n        return StandardToken.transfer(_to, _value);\n    }\n\n    function transferFrom(address _from, address _to, uint256 _value)\n        requireTradableFrom(_from)\n        public\n        returns (bool success)\n    {\n        return StandardToken.transferFrom(_from, _to, _value);\n    }\n\n    /* Approves and then calls the receiving contract */\n    function approveAndCall(address _spender, uint256 _value, bytes _extraData)\n        public\n        returns (bool success)\n    {\n        allowed[msg.sender][_spender] = _value;\n        Approval(msg.sender, _spender, _value);\n\n        //call the receiveApproval function on the contract you want to be notified. This crafts the function signature manually so one doesn't have to include a contract in here just for this.\n        //receiveApproval(address _from, uint256 _value, address _tokenContract, bytes _extraData)\n        //it is assumed that when does this that the call *should* succeed, otherwise one would use vanilla approve instead.\n        ERC20RecipientInterface spender = ERC20RecipientInterface(_spender);\n        require(spender.receiveApproval(msg.sender, _value, this, _extraData));\n        return true;\n    }\n}\n",
  "sourcePath": "/home/liberty/workspace/oneclick-ico/contracts/ICOableToken.sol",
  "compiler": {
    "name": "solc",
    "version": "0.4.18+commit.9cf6e910.Emscripten.clang"
  },
  "schemaVersion": "1.0.1",
  "updatedAt": "2018-01-27T02:50:46.797Z"
}